{"abi":[{"type":"constructor","inputs":[{"name":"forwarder","type":"address","internalType":"address"},{"name":"_minRate","type":"uint256","internalType":"uint256"},{"name":"_maxRate","type":"uint256","internalType":"uint256"},{"name":"_maxDeviationBips","type":"uint16","internalType":"uint16"}],"stateMutability":"nonpayable"},{"type":"function","name":"getForwarderAddress","inputs":[],"outputs":[{"name":"","type":"address","internalType":"address"}],"stateMutability":"view"},{"type":"function","name":"maxDeviationBips","inputs":[],"outputs":[{"name":"","type":"uint16","internalType":"uint16"}],"stateMutability":"view"},{"type":"function","name":"maxRate","inputs":[],"outputs":[{"name":"","type":"uint256","internalType":"uint256"}],"stateMutability":"view"},{"type":"function","name":"minRate","inputs":[],"outputs":[{"name":"","type":"uint256","internalType":"uint256"}],"stateMutability":"view"},{"type":"function","name":"onReport","inputs":[{"name":"metadata","type":"bytes","internalType":"bytes"},{"name":"report","type":"bytes","internalType":"bytes"}],"outputs":[],"stateMutability":"nonpayable"},{"type":"function","name":"rate","inputs":[],"outputs":[{"name":"","type":"uint256","internalType":"uint256"}],"stateMutability":"view"},{"type":"function","name":"rateWithTimestamp","inputs":[],"outputs":[{"name":"","type":"uint256","internalType":"uint256"},{"name":"","type":"uint256","internalType":"uint256"}],"stateMutability":"view"},{"type":"function","name":"setBounds","inputs":[{"name":"_minRate","type":"uint256","internalType":"uint256"},{"name":"_maxRate","type":"uint256","internalType":"uint256"},{"name":"_maxDeviationBips","type":"uint16","internalType":"uint16"}],"outputs":[],"stateMutability":"nonpayable"},{"type":"function","name":"setForwarderAddress","inputs":[{"name":"_forwarder","type":"address","internalType":"address"}],"outputs":[],"stateMutability":"nonpayable"},{"type":"function","name":"supportsInterface","inputs":[{"name":"interfaceId","type":"bytes4","internalType":"bytes4"}],"outputs":[{"name":"","type":"bool","internalType":"bool"}],"stateMutability":"view"},{"type":"function","name":"updatedAt","inputs":[],"outputs":[{"name":"","type":"uint256","internalType":"uint256"}],"stateMutability":"view"},{"type":"event","name":"BoundsUpdated","inputs":[{"name":"minRate","type":"uint256","indexed":false,"internalType":"uint256"},{"name":"maxRate","type":"uint256","indexed":false,"internalType":"uint256"},{"name":"maxDeviationBips","type":"uint16","indexed":false,"internalType":"uint16"}],"anonymous":false},{"type":"event","name":"ForwarderAddressUpdated","inputs":[{"name":"previousForwarder","type":"address","indexed":true,"internalType":"address"},{"name":"newForwarder","type":"address","indexed":true,"internalType":"address"}],"anonymous":false},{"type":"event","name":"RateUpdated","inputs":[{"name":"oldRate","type":"uint256","indexed":false,"internalType":"uint256"},{"name":"newRate","type":"uint256","indexed":false,"internalType":"uint256"},{"name":"timestamp","type":"uint256","indexed":false,"internalType":"uint256"}],"anonymous":false},{"type":"error","name":"DeviationTooLarge","inputs":[{"name":"oldRate","type":"uint256","internalType":"uint256"},{"name":"newRate","type":"uint256","internalType":"uint256"}]},{"type":"error","name":"InvalidForwarderAddress","inputs":[]},{"type":"error","name":"InvalidSender","inputs":[{"name":"sender","type":"address","internalType":"address"},{"name":"expected","type":"address","internalType":"address"}]},{"type":"error","name":"NotOwner","inputs":[]},{"type":"error","name":"RateOutOfBounds","inputs":[{"name":"newRate","type":"uint256","internalType":"uint256"}]}],"bytecode":{"object":"0x608060405234801561001057600080fd5b5060405161076838038061076883398101604081905261002f916100d0565b836001600160a01b0381166100565760405162e0775560e61b815260040160405180910390fd5b600080546001600160a01b0383166001600160a01b0319918216811783556001805490921633179091556040519091907f039ad854736757070884dd787ef1a7f58db33546639d1f3efddcf4a33fb8997e908290a3506004929092556005556006805461ffff191661ffff9092169190911790555061012f565b600080600080608085870312156100e657600080fd5b84516001600160a01b03811681146100fd57600080fd5b809450506020850151925060408501519150606085015161ffff8116811461012457600080fd5b939692955090935050565b61062a8061013e6000396000f3fe608060405234801561001057600080fd5b50600436106100a95760003560e01c8063805f213211610071578063805f21321461011a57806392cbc4791461012f578063add3c23414610142578063c610239514610163578063d777cc6d1461017e578063ece1d6e51461019157600080fd5b806301ffc9a7146100ae5780630cb60443146100d65780632c4e722e146100ed5780633441856f146100f65780637519ab5014610111575b600080fd5b6100c16100bc36600461044c565b61019a565b60405190151581526020015b60405180910390f35b6100df60045481565b6040519081526020016100cd565b6100df60025481565b6000546040516001600160a01b0390911681526020016100cd565b6100df60035481565b61012d6101283660046104c6565b6101d1565b005b61012d61013d366004610532565b61023e565b6006546101509061ffff1681565b60405161ffff90911681526020016100cd565b600254600354604080519283526020830191909152016100cd565b61012d61018c366004610572565b6102ce565b6100df60055481565b60006001600160e01b0319821663402f909960e11b14806101cb57506001600160e01b031982166301ffc9a760e01b145b92915050565b6000546001600160a01b0316158015906101f657506000546001600160a01b03163314155b1561022e5760005460405163708986dd60e11b81523360048201526001600160a01b0390911660248201526044015b60405180910390fd5b6102388282610349565b50505050565b6001546001600160a01b03163314610269576040516330cd747160e01b815260040160405180910390fd5b600483905560058290556006805461ffff191661ffff83169081179091556040805185815260208101859052908101919091527f45c298babc58445c2571c6ac12d9eb5606d0d2ac9576a3e2c2868cfe7244f0f09060600160405180910390a1505050565b6001546001600160a01b031633146102f9576040516330cd747160e01b815260040160405180910390fd5b600080546001600160a01b038381166001600160a01b0319831681178455604051919092169283917f039ad854736757070884dd787ef1a7f58db33546639d1f3efddcf4a33fb8997e9190a35050565b60006103578284018461059b565b905060045481108061036a575060055481115b1561038b5760405163c0ebde7560e01b815260048101829052602401610225565b60025480156104015760008183116103ac576103a783836105ca565b6103b6565b6103b682846105ca565b6006549091506103ca9061ffff16836105dd565b6103d6826127106105dd565b11156103ff5760405163df678e9960e01b81526004810183905260248101849052604401610225565b505b6040805182815260208101849052428183015290517fa387c3601f61e88a17e341cfebf7ab826a8cd4544cd72b2dc0cf12988e77754b9181900360600190a150600255505042600355565b60006020828403121561045e57600080fd5b81356001600160e01b03198116811461047657600080fd5b9392505050565b60008083601f84011261048f57600080fd5b50813567ffffffffffffffff8111156104a757600080fd5b6020830191508360208285010111156104bf57600080fd5b9250929050565b600080600080604085870312156104dc57600080fd5b843567ffffffffffffffff808211156104f457600080fd5b6105008883890161047d565b9096509450602087013591508082111561051957600080fd5b506105268782880161047d565b95989497509550505050565b60008060006060848603121561054757600080fd5b8335925060208401359150604084013561ffff8116811461056757600080fd5b809150509250925092565b60006020828403121561058457600080fd5b81356001600160a01b038116811461047657600080fd5b6000602082840312156105ad57600080fd5b5035919050565b634e487b7160e01b600052601160045260246000fd5b818103818111156101cb576101cb6105b4565b80820281158282048414176101cb576101cb6105b456fea2646970667358221220ea8b5d9cc4d05a33a0476393cdd56d4ff151cf8e3cd3e99e9ddd6ac50e3f18f664736f6c63430008130033","linkReferences":{}},"methodIdentifiers":{"getForwarderAddress()":"3441856f","maxDeviationBips()":"add3c234","maxRate()":"ece1d6e5","minRate()":"0cb60443","onReport(bytes,bytes)":"805f2132","rate()":"2c4e722e","rateWithTimestamp()":"c6102395","setBounds(uint256,uint256,uint16)":"92cbc479","setForwarderAddress(address)":"d777cc6d","supportsInterface(bytes4)":"01ffc9a7","updatedAt()":"7519ab50"},"id":0}